:020000040000FA
:100000000C9436000C945E000C945E000C945E0020
:100010000C945E000C945E000C945E000C945E00E8
:100020000C945E000C945E000C945E000C945E00D8
:100030000C945E000C945E000C945E000C945E00C8
:100040000C94DE010C945E000C944E020C94280279
:100050000C945E000C945E000C945E000C945E00A8
:100060000C945E000C945E0080024D0411241FBEAF
:10007000CFEFD8E0DEBFCDBF21E0AEE3B1E001C0FD
:100080001D92AE3EB207E1F711E0A0E0B1E0E4E27C
:10009000FDE002C005900D92AE33B107D9F710E034
:1000A000C5E3D0E004C02197FE010E948D04C43353
:1000B000D107C9F70E94F6020C9485060C94000043
:1000C0000895AF92BF92CF92DF92EF92FF920F937B
:1000D0001F93CF93DF936C017B018B01040F151FDE
:1000E000EB015E01AE18BF08C017D10759F0699146
:1000F000D601ED91FC910190F081E02DC6010995AA
:10010000892B79F7C501DF91CF911F910F91FF9056
:10011000EF90DF90CF90BF90AF900895FC01538D8A
:10012000448D252F30E0842F90E0821B930B5417D1
:1001300010F0CF96089501970895FC01918D828D5E
:10014000981761F0A28DAE0FBF2FB11D5D968C91F7
:10015000928D9F5F9F73928F90E008958FEF9FEF36
:1001600008952FB7F8948091430190914401A09194
:100170004501B09146012FBF80934F0190935001EC
:10018000A0935101B093520187E491E00E949D0039
:1001900097FF26C02FB7F8948091430190914401B6
:1001A000A0914501B09146012FBF40914F01509160
:1001B00050016091510170915201841B950BA60B67
:1001C000B70B40914B0150914C0160914D017091E2
:1001D0004E0184179507A607B707B0F28FEF9FEF80
:1001E0000895FC01918D828D981731F0828DE80F72
:1001F000F11D858D90E008958FEF9FEF0895FC012C
:10020000918D228D892F90E0805C9F4F821B9109F8
:100210008F739927089587E491E00E94FF0021E001
:10022000892B09F420E0822F089580E090E0892B4B
:1002300029F00E940B0181110C9400000895FC012B
:10024000A48DA80FB92FB11DA35ABF4F2C91848D37
:1002500090E001968F739927848FA689B7892C9394
:10026000A089B1898C91837080648C93938D848DE7
:10027000981306C00288F389E02D80818F7D8083EA
:100280000895EF92FF920F931F93CF93DF93EC01AA
:1002900081E0888F9B8D8C8D98131AC0E889F9892D
:1002A000808185FF15C09FB7F894EE89FF89608330
:1002B000E889F98980818370806480839FBF81E0B1
:1002C00090E0DF91CF911F910F91FF90EF900895F3
:1002D000F62E0B8D10E00F5F1F4F0F731127E02ECE
:1002E0008C8D8E110CC00FB607FCFACFE889F98906
:1002F000808185FFF5CFCE010E941F01F1CFEB8DEC
:10030000EC0FFD2FF11DE35AFF4FF0829FB7F894D9
:100310000B8FEA89FB8980818062CFCFCF93DF93F7
:10032000EC01888D8823B9F0AA89BB89E889F9890D
:100330008C9185FD03C0808186FD0DC00FB607FC42
:10034000F7CF8C9185FFF2CF808185FFEDCFCE0175
:100350000E941F01E9CFDF91CF91089542E050E064
:1003600068E171E087E491E00C9461000F931F93C2
:10037000CF93DF93EC0188819981009759F02A810E
:100380003B812617370730F081E0DF91CF911F9135
:100390000F9108958B016F5F7F4F0E94B805009702
:1003A00059F0998388831B830A832C813D81232BF9
:1003B00059F7FC011082E8CF80E0E7CF1F920F923F
:1003C0000FB60F9211242F933F938F939F93AF9368
:1003D000BF938091430190914401A0914501B09158
:1003E00046013091420123E0230F2D3758F5019645
:1003F000A11DB11D209342018093430190934401BC
:10040000A0934501B093460180913E0190913F0138
:10041000A0914001B09141010196A11DB11D8093B1
:100420003E0190933F01A0934001B0934101BF91E1
:10043000AF919F918F913F912F910F900FBE0F9091
:100440001F90189526E8230F0296A11DB11DD2CF4B
:100450001F920F920FB60F9211242F933F934F9339
:100460005F936F937F938F939F93AF93BF93EF931C
:10047000FF9387E491E00E941F01FF91EF91BF91EC
:10048000AF919F918F917F916F915F914F913F912C
:100490002F910F900FBE0F901F9018951F920F92E3
:1004A0000FB60F9211242F938F939F93EF93FF9387
:1004B000E0915701F09158018081E0915D01F09148
:1004C0005E0182FD1BC09081809160018F5F8F7300
:1004D00020916101821741F0E0916001F0E0E95B59
:1004E000FE4F958F80936001FF91EF919F918F91C7
:1004F0002F910F900FBE0F901F9018958081F4CF11
:1005000010924A011092490188EE93E0A0E0B0E019
:1005100080934B0190934C01A0934D01B0934E01F9
:100520008AE091E0909348018093470185EC90E048
:10053000909354018093530184EC90E09093560182
:100540008093550180EC90E090935801809357017F
:1005500081EC90E090935A018093590182EC90E0F5
:1005600090935C0180935B0186EC90E090935E0138
:1005700080935D01109260011092610110926201FE
:10058000109263011092E5011092E4011092E701CC
:100590001092E6011092E9011092E80170E060E02B
:1005A00084EE91E00E94B6012091E4013091E501D2
:1005B000811113C02115310519F0C9010E942F05C1
:1005C0001092E5011092E4011092E9011092E80105
:1005D0001092E7011092E60108951092E90110923D
:1005E000E8016AE171E0C9010C947E06CF93DF93C4
:1005F000CDB7DEB728970FB6F894DEBF0FBECDBFDC
:10060000789484B5826084BD84B5816084BD85B5ED
:10061000826085BD85B5816085BD80916E008160F9
:1006200080936E001092810080918100826080939F
:1006300081008091810081608093810080918000A1
:100640008160809380008091B10084608093B100CC
:100650008091B00081608093B00080917A008460C6
:1006600080937A0080917A00826080937A008091F2
:100670007A00816080937A0080917A00806880930C
:100680007A001092C100E0915701F091580182E088
:100690008083E0915301F09154011082E091550163
:1006A000F09156018FEC808310925F01E0915B0125
:1006B000F0915C0186E08083E0915901F0915A014C
:1006C000808180618083E0915901F0915A0180819D
:1006D00088608083E0915901F0915A01808180689F
:1006E0008083E0915901F0915A0180818F7D808350
:1006F00048E150E06BE171E087E491E00E94610025
:100700000E94AE0180E0E82E80E0F82E87E491E0C0
:100710000E94FF00181619060CF09AC01A8219825E
:100720001C821B821E821D8270E060E0CE01019659
:100730000E94B60129813A8181112BC02115310512
:1007400019F0C9010E942F051A8219821E821D828A
:100750001C821B820E94B10097FD23C08F831886E4
:100760000D811E810F5F1F4FB801CE0101960E94BF
:10077000B601882379F329813A818D819E81BE015A
:10078000695F7F4F820F931F0E947E061E830D8339
:10079000E1CF1E821D826AE171E0C9010E947E06DE
:1007A000D9CF8091E4019091E501009709F45EC0F2
:1007B00069817A816115710509F456C04091E6019D
:1007C0005091E7012D813E814217530708F44CC038
:1007D0000E947E068D819E819093E9018093E801BD
:1007E0001E821D8289819A81009711F00E942F0537
:1007F0000091E8011091E9010115110549F1075F28
:100800001F4FB80184EE91E00E94B601882391F059
:100810002091E4013091E5018091E8019091E90196
:1008200064E371E0820F931F0E947E061093E9013A
:100830000093E8014091E8015091E9016091E401E1
:100840007091E50187E491E00E9461000E94AE0191
:10085000E114F10409F45ACF0E940B01882309F432
:1008600055CF0E94000052CF0E942F0589819A81A6
:100870009093E5018093E4018B819C819093E70143
:100880008093E6018D819E819093E9018093E80138
:100890001A8219821C821B82A3CF8091E40190915D
:1008A000E501009711F00C942F0508952F923F92C7
:1008B0004F925F926F927F928F929F92AF92BF9270
:1008C000CF92DF92EF92FF920F931F93CF93DF931C
:1008D000CDB7DEB7CA1BDB0B0FB6F894DEBF0FBE79
:1008E000CDBF09942A88398848885F846E847D84C6
:1008F0008C849B84AA84B984C884DF80EE80FD80C8
:100900000C811B81AA81B981CE0FD11D0FB6F8943D
:10091000DEBF0FBECDBFED010895EE0FFF1F0590A6
:10092000F491E02D09940F931F93CF93DF938230BE
:10093000910510F482E090E0E091EC01F091ED017E
:1009400030E020E0B0E0A0E0309799F421153105C7
:1009500009F44AC0281B390B24303105D8F58A81A7
:100960009B816115710589F1FB0193838283FE01EF
:1009700011C0408151810281138148175907E0F06D
:100980004817590799F4109761F012960C93129733
:1009900013961C933296CF01DF91CF911F910F9147
:1009A00008950093EC011093ED01F4CF211531056A
:1009B00051F04217530738F0A901DB019A01BD013C
:1009C000DF01F801C1CFEF01F9CF9093ED018093E2
:1009D000EC01CDCFFE01E20FF31F819391932250E2
:1009E000310939832883D7CF2091EA013091EB0177
:1009F000232B41F420910201309103013093EB014C
:100A00002093EA0120910001309101012115310567
:100A100041F42DB73EB74091040150910501241BCC
:100A2000350BE091EA01F091EB01E217F307A0F436
:100A30002E1B3F0B2817390778F0AC014E5F5F4F34
:100A40002417350748F04E0F5F1F5093EB0140937A
:100A5000EA01819391939FCFF0E0E0E09CCFCF93A8
:100A6000DF930097E9F0FC01329713821282A09184
:100A7000EC01B091ED01ED0130E020E01097A1F420
:100A800020813181820F931F2091EA013091EB0187
:100A90002817390709F061C0F093EB01E093EA01F0
:100AA000DF91CF910895EA01CE17DF07E8F54A817B
:100AB0005B819E0141155105B1F7E901FB83EA8392
:100AC00049915991C40FD51FEC17FD0761F480813E
:100AD00091810296840F951FE90199838883828111
:100AE00093819B838A83F0E0E0E012968D919C9144
:100AF00013970097B9F52D913C911197CD0102966E
:100B0000820F931F2091EA013091EB0128173907DA
:100B100039F6309751F51092ED011092EC01B09337
:100B2000EB01A093EA01BCCFD383C2834081518102
:100B3000840F951FC817D90761F44E5F5F4F8881F6
:100B40009981480F591F518340838A819B819383E8
:100B500082832115310509F0B0CFF093ED01E093C8
:100B6000EC019ECFFD01DC01C0CF13821282D7CFF2
:100B7000B0E0A0E0EEEBF5E00C9458048C01009797
:100B800051F4CB010E9493048C01C801CDB7DEB7AC
:100B9000E0E10C947404FC01E60FF71F9C01225065
:100BA0003109E217F30708F49DC0D901CD91DC911A
:100BB0001197C617D70798F0C530D10530F3CE018D
:100BC00004978617970708F3C61BD70B2297C19384
:100BD000D1936D937C93CF010E942F05D6CF5B01FB
:100BE000AC1ABD0A4C018C0E9D1EA091EC01B09177
:100BF000ED01512C412CF12CE12C109731F5809115
:100C0000EA019091EB018815990509F05CC0461640
:100C1000570608F058C0809100019091010100979B
:100C200041F48DB79EB74091040150910501841B9A
:100C3000950BE817F90708F055C0F093EB01E09326
:100C4000EA01F90171836083A0CF8D919C91119786
:100C500012966C90129713967C901397A815B9056D
:100C600059F56C0142E0C40ED11CCA14DB0420F11A
:100C7000AC014A195B09DA011296159780F062827D
:100C8000738251834083D9016D937C93E114F10405
:100C900071F0D7011396FC93EE93129776CF2296BC
:100CA0008C0F9D1FF90191838083F301EFCFF093A7
:100CB000ED01E093EC0169CF4816590608F42C01C8
:100CC0007D01D3019ACFCB010E9493047C01009750
:100CD00049F0AE01B8010E947506C8010E942F05B7
:100CE000870153CF10E000E050CFFB01DC0102C0D0
:100CF00001900D9241505040D8F70895FB01DC015E
:100D000001900D920020E1F7089510E0C5E3D0E0D6
:100D100004C0FE010E948D042196C633D107C9F795
:100D2000F894FFCF0000EE018000000000004101B8
:100D300061008E008E01FF009D00F1000D0A00573A
:100D4000616974696E6720666F722061206D6573DA
:100D5000736167652E2E2E00204D6F64696669658C
:020D600064002D
:107E0000112484B714BE81FFF0D085E080938100F7
:107E100082E08093C00088E18093C10086E0809377
:107E2000C20080E18093C4008EE0C9D0259A86E02C
:107E300020E33CEF91E0309385002093840096BBD3
:107E4000B09BFECF1D9AA8958150A9F7CC24DD24C4
:107E500088248394B5E0AB2EA1E19A2EF3E0BF2EE7
:107E6000A2D0813461F49FD0082FAFD0023811F036
:107E7000013811F484E001C083E08DD089C08234E0
:107E800011F484E103C0853419F485E0A6D080C0E4
:107E9000853579F488D0E82EFF2485D0082F10E0AE
:107EA000102F00270E291F29000F111F8ED06801E7
:107EB0006FC0863521F484E090D080E0DECF843638
:107EC00009F040C070D06FD0082F6DD080E0C81688
:107ED00080E7D80618F4F601B7BEE895C0E0D1E017
:107EE00062D089930C17E1F7F0E0CF16F0E7DF06D8
:107EF00018F0F601B7BEE89568D007B600FCFDCFD4
:107F0000A601A0E0B1E02C9130E011968C91119780
:107F100090E0982F8827822B932B1296FA010C0160
:107F200087BEE89511244E5F5F4FF1E0A038BF0790
:107F300051F7F601A7BEE89507B600FCFDCF97BE46
:107F4000E89526C08437B1F42ED02DD0F82E2BD052
:107F50003CD0F601EF2C8F010F5F1F4F84911BD097
:107F6000EA94F801C1F70894C11CD11CFA94CF0C13
:107F7000D11C0EC0853739F428D08EE10CD085E9AC
:107F80000AD08FE07ACF813511F488E018D01DD067
:107F900080E101D065CF982F8091C00085FFFCCF94
:107FA0009093C60008958091C00087FFFCCF809118
:107FB000C00084FD01C0A8958091C6000895E0E648
:107FC000F0E098E1908380830895EDDF803219F02E
:107FD00088E0F5DFFFCF84E1DECF1F93182FE3DFCA
:107FE0001150E9F7F2DF1F91089580E0E8DFEE27F6
:047FF000FF270994CA
:027FFE00040479
:00000001FF
